{
  "_format": "hh-sol-artifact-1",
  "contractName": "Vault",
  "sourceName": "contracts/Vault.sol",
  "abi": [
    {
      "inputs": [
        {
          "internalType": "contract ISFC",
          "name": "_sfc",
          "type": "address"
        },
        {
          "internalType": "uint256",
          "name": "_toValidatorID",
          "type": "uint256"
        }
      ],
      "stateMutability": "nonpayable",
      "type": "constructor"
    },
    {
      "inputs": [],
      "name": "DECIMAL_UNIT",
      "outputs": [
        {
          "internalType": "uint256",
          "name": "",
          "type": "uint256"
        }
      ],
      "stateMutability": "view",
      "type": "function"
    },
    {
      "inputs": [],
      "name": "SFC",
      "outputs": [
        {
          "internalType": "contract ISFC",
          "name": "",
          "type": "address"
        }
      ],
      "stateMutability": "view",
      "type": "function"
    },
    {
      "inputs": [],
      "name": "VERSION",
      "outputs": [
        {
          "internalType": "string",
          "name": "",
          "type": "string"
        }
      ],
      "stateMutability": "view",
      "type": "function"
    },
    {
      "inputs": [],
      "name": "claimRewards",
      "outputs": [],
      "stateMutability": "nonpayable",
      "type": "function"
    },
    {
      "inputs": [],
      "name": "currentStakeValue",
      "outputs": [
        {
          "internalType": "uint256",
          "name": "",
          "type": "uint256"
        }
      ],
      "stateMutability": "view",
      "type": "function"
    },
    {
      "inputs": [],
      "name": "delegate",
      "outputs": [],
      "stateMutability": "payable",
      "type": "function"
    },
    {
      "inputs": [],
      "name": "getLockedStake",
      "outputs": [
        {
          "internalType": "uint256",
          "name": "",
          "type": "uint256"
        }
      ],
      "stateMutability": "view",
      "type": "function"
    },
    {
      "inputs": [
        {
          "internalType": "uint256",
          "name": "lockupDuration",
          "type": "uint256"
        },
        {
          "internalType": "uint256",
          "name": "amount",
          "type": "uint256"
        }
      ],
      "name": "lockStake",
      "outputs": [],
      "stateMutability": "nonpayable",
      "type": "function"
    },
    {
      "inputs": [],
      "name": "owner",
      "outputs": [
        {
          "internalType": "address",
          "name": "",
          "type": "address"
        }
      ],
      "stateMutability": "view",
      "type": "function"
    },
    {
      "inputs": [
        {
          "internalType": "uint256",
          "name": "lockupDuration",
          "type": "uint256"
        },
        {
          "internalType": "uint256",
          "name": "amount",
          "type": "uint256"
        }
      ],
      "name": "relockStake",
      "outputs": [],
      "stateMutability": "nonpayable",
      "type": "function"
    },
    {
      "inputs": [],
      "name": "restakeRewards",
      "outputs": [],
      "stateMutability": "nonpayable",
      "type": "function"
    },
    {
      "inputs": [],
      "name": "toValidator",
      "outputs": [
        {
          "internalType": "address",
          "name": "",
          "type": "address"
        }
      ],
      "stateMutability": "view",
      "type": "function"
    },
    {
      "inputs": [],
      "name": "toValidatorID",
      "outputs": [
        {
          "internalType": "uint256",
          "name": "",
          "type": "uint256"
        }
      ],
      "stateMutability": "view",
      "type": "function"
    },
    {
      "inputs": [
        {
          "internalType": "uint256",
          "name": "wrID",
          "type": "uint256"
        },
        {
          "internalType": "uint256",
          "name": "amount",
          "type": "uint256"
        }
      ],
      "name": "undelegate",
      "outputs": [],
      "stateMutability": "nonpayable",
      "type": "function"
    },
    {
      "inputs": [
        {
          "internalType": "uint256",
          "name": "amount",
          "type": "uint256"
        }
      ],
      "name": "unlock",
      "outputs": [],
      "stateMutability": "nonpayable",
      "type": "function"
    },
    {
      "inputs": [
        {
          "internalType": "address",
          "name": "newOwner",
          "type": "address"
        }
      ],
      "name": "updateOwner",
      "outputs": [],
      "stateMutability": "nonpayable",
      "type": "function"
    },
    {
      "inputs": [
        {
          "internalType": "uint256",
          "name": "wrID",
          "type": "uint256"
        },
        {
          "internalType": "bool",
          "name": "sendAll",
          "type": "bool"
        }
      ],
      "name": "withdraw",
      "outputs": [],
      "stateMutability": "nonpayable",
      "type": "function"
    },
    {
      "stateMutability": "payable",
      "type": "receive"
    }
  ],
  "bytecode": "0x60e06040523480156200001157600080fd5b50604051620014e8380380620014e88339810160408190526200003491620000f9565b600080546001600160a01b031916331781556001600160601b0319606084901b1660805260c082905260405163b5d8962760e01b8152600481018390526001600160a01b0384169063b5d896279060240160e06040518083038186803b1580156200009e57600080fd5b505afa158015620000b3573d6000803e3d6000fd5b505050506040513d601f19601f82011682018060405250810190620000d991906200012a565b60601b6001600160601b03191660a05250620001a6975050505050505050565b600080604083850312156200010d57600080fd5b82516200011a816200018d565b6020939093015192949293505050565b600080600080600080600060e0888a0312156200014657600080fd5b875196506020880151955060408801519450606088015193506080880151925060a0880151915060c08801516200017d816200018d565b8091505092959891949750929550565b6001600160a01b0381168114620001a357600080fd5b50565b60805160601c60a05160601c60c051611248620002a06000396000818161030d0152818161037f0152818161047101528181610570015281816106930152818161075801528181610846015281816108f8015281816109ba01528181610a7d01528181610b4001528181610d1501528181610db901528181610e790152610ef301526000610205015260008181610291015281816103a8015281816104970152818161059f015281816106b9015281816107850152818161087a0152818161092b015281816109ee01528181610ab701528181610b7801528181610d4901528181610ddf01528181610ead0152610f2601526112486000f3fe6080604052600436106101025760003560e01c806368d57d3f11610095578063a97aeed511610064578063a97aeed5146102b3578063c89e4361146102d3578063e0819cd4146102db578063fb779593146102fb578063ffa1ad741461032f57600080fd5b806368d57d3f146101f3578063880cdc311461023f5780638da5cb5b1461025f5780639094631e1461027f57600080fd5b80633d8527ba116100d15780633d8527ba146101895780636198e3391461019e578063634b91e3146101be578063646ce010146101de57600080fd5b80630fa67db21461010e5780632b1931fe1461013d578063372500ab1461015257806338d074361461016957600080fd5b3661010957005b600080fd5b34801561011a57600080fd5b5061012a670de0b6b3a764000081565b6040519081526020015b60405180910390f35b34801561014957600080fd5b5061012a61036a565b34801561015e57600080fd5b5061016761042f565b005b34801561017557600080fd5b5061016761018436600461107f565b610537565b34801561019557600080fd5b5061016761065a565b3480156101aa57600080fd5b506101676101b936600461104d565b61071f565b3480156101ca57600080fd5b506101676101d93660046110af565b61080d565b3480156101ea57600080fd5b5061012a6108e3565b3480156101ff57600080fd5b506102277f000000000000000000000000000000000000000000000000000000000000000081565b6040516001600160a01b039091168152602001610134565b34801561024b57600080fd5b5061016761025a366004611007565b610c39565b34801561026b57600080fd5b50600054610227906001600160a01b031681565b34801561028b57600080fd5b506102277f000000000000000000000000000000000000000000000000000000000000000081565b3480156102bf57600080fd5b506101676102ce3660046110af565b610cdc565b610167610d80565b3480156102e757600080fd5b506101676102f63660046110af565b610e40565b34801561030757600080fd5b5061012a7f000000000000000000000000000000000000000000000000000000000000000081565b34801561033b57600080fd5b5061035d60405180604001604052806002815260200161763160f01b81525081565b60405161013491906110ff565b604051630ce0645f60e31b81523060048201527f000000000000000000000000000000000000000000000000000000000000000060248201526000907f00000000000000000000000000000000000000000000000000000000000000006001600160a01b03169063670322f89060440160206040518083038186803b1580156103f257600080fd5b505afa158015610406573d6000803e3d6000fd5b505050506040513d601f19601f8201168201806040525081019061042a9190611066565b905090565b6000546001600160a01b031633146104625760405162461bcd60e51b815260040161045990611154565b60405180910390fd5b604051630962ef7960e01b81527f000000000000000000000000000000000000000000000000000000000000000060048201527f00000000000000000000000000000000000000000000000000000000000000006001600160a01b031690630962ef7990602401600060405180830381600087803b1580156104e357600080fd5b505af11580156104f7573d6000803e3d6000fd5b5050600080546040516001600160a01b0390911693504780156108fc02935091818181858888f19350505050158015610534573d6000803e3d6000fd5b50565b6000546001600160a01b031633146105615760405162461bcd60e51b815260040161045990611154565b604051630441a3e760e41b81527f000000000000000000000000000000000000000000000000000000000000000060048201526024810183905247907f00000000000000000000000000000000000000000000000000000000000000006001600160a01b03169063441a3e7090604401600060405180830381600087803b1580156105eb57600080fd5b505af11580156105ff573d6000803e3d6000fd5b5050505060004790508261061a5761061782826111d7565b90505b600080546040516001600160a01b039091169183156108fc02918491818181858888f19350505050158015610653573d6000803e3d6000fd5b5050505050565b6000546001600160a01b031633146106845760405162461bcd60e51b815260040161045990611154565b604051630230da1d60e21b81527f000000000000000000000000000000000000000000000000000000000000000060048201527f00000000000000000000000000000000000000000000000000000000000000006001600160a01b0316906308c3687490602401600060405180830381600087803b15801561070557600080fd5b505af1158015610719573d6000803e3d6000fd5b50505050565b6000546001600160a01b031633146107495760405162461bcd60e51b815260040161045990611154565b60405163074eb10b60e21b81527f00000000000000000000000000000000000000000000000000000000000000006004820152602481018290527f00000000000000000000000000000000000000000000000000000000000000006001600160a01b031690631d3ac42c90604401602060405180830381600087803b1580156107d157600080fd5b505af11580156107e5573d6000803e3d6000fd5b505050506040513d601f19601f820116820180604052508101906108099190611066565b5050565b6000546001600160a01b031633146108375760405162461bcd60e51b815260040161045990611154565b6040516313e1937d60e21b81527f0000000000000000000000000000000000000000000000000000000000000000600482015260248101839052604481018290527f00000000000000000000000000000000000000000000000000000000000000006001600160a01b031690634f864df4906064015b600060405180830381600087803b1580156108c757600080fd5b505af11580156108db573d6000803e3d6000fd5b505050505050565b60405163cfd4766360e01b81523060048201527f0000000000000000000000000000000000000000000000000000000000000000602482015260009081906001600160a01b037f0000000000000000000000000000000000000000000000000000000000000000169063cfd476639060440160206040518083038186803b15801561096d57600080fd5b505afa158015610981573d6000803e3d6000fd5b505050506040513d601f19601f820116820180604052508101906109a59190611066565b60405163304cf65960e11b81523060048201527f000000000000000000000000000000000000000000000000000000000000000060248201529091506000906001600160a01b037f00000000000000000000000000000000000000000000000000000000000000001690636099ecb29060440160206040518083038186803b158015610a3057600080fd5b505afa158015610a44573d6000803e3d6000fd5b505050506040513d601f19601f82011682018060405250810190610a689190611066565b604051630f9380a960e11b81523060048201527f000000000000000000000000000000000000000000000000000000000000000060248201526000604482018190529192506001600160a01b037f00000000000000000000000000000000000000000000000000000000000000001690631f2701529060640160606040518083038186803b158015610af957600080fd5b505afa158015610b0d573d6000803e3d6000fd5b505050506040513d601f19601f82011682018060405250810190610b3191906110d1565b6040516361ef2c0760e11b81527f00000000000000000000000000000000000000000000000000000000000000006004820152909350600092508291506001600160a01b037f0000000000000000000000000000000000000000000000000000000000000000169063c3de580e9060240160206040518083038186803b158015610bba57600080fd5b505afa158015610bce573d6000803e3d6000fd5b505050506040513d601f19601f82011682018060405250810190610bf29190611030565b90508015610c0f57610c0c610c07848761117e565b610ee4565b91505b8183610c1b868861117e565b610c25919061117e565b610c2f91906111d7565b9550505050505090565b6000546001600160a01b03163314610c635760405162461bcd60e51b815260040161045990611154565b6001600160a01b038116610cad5760405162461bcd60e51b81526020600482015260116024820152704552525f494e56414c49445f56414c554560781b6044820152606401610459565b6000805473ffffffffffffffffffffffffffffffffffffffff19166001600160a01b0392909216919091179055565b6000546001600160a01b03163314610d065760405162461bcd60e51b815260040161045990611154565b60405163de67f21560e01b81527f0000000000000000000000000000000000000000000000000000000000000000600482015260248101839052604481018290527f00000000000000000000000000000000000000000000000000000000000000006001600160a01b03169063de67f215906064016108ad565b6000546001600160a01b03163314610daa5760405162461bcd60e51b815260040161045990611154565b604051639fa6dd3560e01b81527f000000000000000000000000000000000000000000000000000000000000000060048201527f00000000000000000000000000000000000000000000000000000000000000006001600160a01b031690639fa6dd359034906024016000604051808303818588803b158015610e2c57600080fd5b505af1158015610653573d6000803e3d6000fd5b6000546001600160a01b03163314610e6a5760405162461bcd60e51b815260040161045990611154565b60405163bd14d90760e01b81527f0000000000000000000000000000000000000000000000000000000000000000600482015260248101839052604481018290527f00000000000000000000000000000000000000000000000000000000000000006001600160a01b03169063bd14d907906064016108ad565b60405163c65ee0e160e01b81527f0000000000000000000000000000000000000000000000000000000000000000600482015260009081906001600160a01b037f0000000000000000000000000000000000000000000000000000000000000000169063c65ee0e19060240160206040518083038186803b158015610f6857600080fd5b505afa158015610f7c573d6000803e3d6000fd5b505050506040513d601f19601f82011682018060405250810190610fa09190611066565b9050670de0b6b3a76400008110610fba5750600092915050565b6000670de0b6b3a7640000610fcf83826111d7565b610fd990866111b8565b610fe39190611196565b610fee90600161117e565b90508381111561100057509192915050565b9392505050565b60006020828403121561101957600080fd5b81356001600160a01b038116811461100057600080fd5b60006020828403121561104257600080fd5b815161100081611204565b60006020828403121561105f57600080fd5b5035919050565b60006020828403121561107857600080fd5b5051919050565b6000806040838503121561109257600080fd5b8235915060208301356110a481611204565b809150509250929050565b600080604083850312156110c257600080fd5b50508035926020909101359150565b6000806000606084860312156110e657600080fd5b8351925060208401519150604084015190509250925092565b600060208083528351808285015260005b8181101561112c57858101830151858201604001528201611110565b8181111561113e576000604083870101525b50601f01601f1916929092016040019392505050565b60208082526010908201526f11549497d5539055551213d49256915160821b604082015260600190565b60008219821115611191576111916111ee565b500190565b6000826111b357634e487b7160e01b600052601260045260246000fd5b500490565b60008160001904831182151516156111d2576111d26111ee565b500290565b6000828210156111e9576111e96111ee565b500390565b634e487b7160e01b600052601160045260246000fd5b801515811461053457600080fdfea2646970667358221220b4bd5ef8f0e940a42d9dac8a22de871688b9cc3cc9a6aa731612b041280bdeb864736f6c63430008070033",
  "linkReferences": {},
  "deployedLinkReferences": {}
}