{
    "abi": [
        {
            "inputs": [
                {
                    "internalType": "uint256",
                    "name": "lastRewardTime",
                    "type": "uint256"
                }
            ],
            "name": "getRate",
            "outputs": [
                {
                    "internalType": "uint256",
                    "name": "rate",
                    "type": "uint256"
                }
            ],
            "stateMutability": "pure",
            "type": "function"
        }
    ],
    "bytecode": {
        "object": "0x608080604052346014576080908161001a8239f35b600080fdfe6080806040526004361015601257600080fd5b60003560e01c635776409414602657600080fd5b3460455760203660031901126045578067016345785d8a000060209252f35b600080fdfea2646970667358221220247589498b5bd3b96930dcfb98bea6cfc28ea514dcbc6387b7db5aebb190aa0764736f6c63430008110033",
        "linkReferences": {}
    },
    "methodIdentifiers": {
        "getRate(uint256)": "57764094"
    },
    "id": 2
}